{
  "contractName": "MagicToken",
  "abi": [
    {
      "constant": true,
      "inputs": [],
      "name": "mintingFinished",
      "outputs": [
        {
          "name": "",
          "type": "bool"
        }
      ],
      "payable": false,
      "stateMutability": "view",
      "type": "function"
    },
    {
      "constant": true,
      "inputs": [],
      "name": "name",
      "outputs": [
        {
          "name": "",
          "type": "string"
        }
      ],
      "payable": false,
      "stateMutability": "view",
      "type": "function"
    },
    {
      "constant": false,
      "inputs": [
        {
          "name": "spender",
          "type": "address"
        },
        {
          "name": "value",
          "type": "uint256"
        }
      ],
      "name": "approve",
      "outputs": [
        {
          "name": "",
          "type": "bool"
        }
      ],
      "payable": false,
      "stateMutability": "nonpayable",
      "type": "function"
    },
    {
      "constant": true,
      "inputs": [],
      "name": "totalSupply",
      "outputs": [
        {
          "name": "",
          "type": "uint256"
        }
      ],
      "payable": false,
      "stateMutability": "view",
      "type": "function"
    },
    {
      "constant": false,
      "inputs": [
        {
          "name": "from",
          "type": "address"
        },
        {
          "name": "to",
          "type": "address"
        },
        {
          "name": "value",
          "type": "uint256"
        }
      ],
      "name": "transferFrom",
      "outputs": [
        {
          "name": "",
          "type": "bool"
        }
      ],
      "payable": false,
      "stateMutability": "nonpayable",
      "type": "function"
    },
    {
      "constant": true,
      "inputs": [],
      "name": "decimals",
      "outputs": [
        {
          "name": "",
          "type": "uint8"
        }
      ],
      "payable": false,
      "stateMutability": "view",
      "type": "function"
    },
    {
      "constant": false,
      "inputs": [
        {
          "name": "spender",
          "type": "address"
        },
        {
          "name": "addedValue",
          "type": "uint256"
        }
      ],
      "name": "increaseAllowance",
      "outputs": [
        {
          "name": "",
          "type": "bool"
        }
      ],
      "payable": false,
      "stateMutability": "nonpayable",
      "type": "function"
    },
    {
      "constant": false,
      "inputs": [
        {
          "name": "to",
          "type": "address"
        },
        {
          "name": "amount",
          "type": "uint256"
        }
      ],
      "name": "mint",
      "outputs": [
        {
          "name": "",
          "type": "bool"
        }
      ],
      "payable": false,
      "stateMutability": "nonpayable",
      "type": "function"
    },
    {
      "constant": false,
      "inputs": [
        {
          "name": "value",
          "type": "uint256"
        }
      ],
      "name": "burn",
      "outputs": [],
      "payable": false,
      "stateMutability": "nonpayable",
      "type": "function"
    },
    {
      "constant": true,
      "inputs": [
        {
          "name": "owner",
          "type": "address"
        }
      ],
      "name": "balanceOf",
      "outputs": [
        {
          "name": "",
          "type": "uint256"
        }
      ],
      "payable": false,
      "stateMutability": "view",
      "type": "function"
    },
    {
      "constant": false,
      "inputs": [],
      "name": "renounceOwnership",
      "outputs": [],
      "payable": false,
      "stateMutability": "nonpayable",
      "type": "function"
    },
    {
      "constant": false,
      "inputs": [
        {
          "name": "from",
          "type": "address"
        },
        {
          "name": "value",
          "type": "uint256"
        }
      ],
      "name": "burnFrom",
      "outputs": [],
      "payable": false,
      "stateMutability": "nonpayable",
      "type": "function"
    },
    {
      "constant": false,
      "inputs": [],
      "name": "finishMinting",
      "outputs": [
        {
          "name": "",
          "type": "bool"
        }
      ],
      "payable": false,
      "stateMutability": "nonpayable",
      "type": "function"
    },
    {
      "constant": true,
      "inputs": [],
      "name": "owner",
      "outputs": [
        {
          "name": "",
          "type": "address"
        }
      ],
      "payable": false,
      "stateMutability": "view",
      "type": "function"
    },
    {
      "constant": true,
      "inputs": [],
      "name": "isOwner",
      "outputs": [
        {
          "name": "",
          "type": "bool"
        }
      ],
      "payable": false,
      "stateMutability": "view",
      "type": "function"
    },
    {
      "constant": true,
      "inputs": [],
      "name": "symbol",
      "outputs": [
        {
          "name": "",
          "type": "string"
        }
      ],
      "payable": false,
      "stateMutability": "view",
      "type": "function"
    },
    {
      "constant": false,
      "inputs": [
        {
          "name": "account",
          "type": "address"
        }
      ],
      "name": "addMinter",
      "outputs": [],
      "payable": false,
      "stateMutability": "nonpayable",
      "type": "function"
    },
    {
      "constant": false,
      "inputs": [],
      "name": "renounceMinter",
      "outputs": [],
      "payable": false,
      "stateMutability": "nonpayable",
      "type": "function"
    },
    {
      "constant": false,
      "inputs": [
        {
          "name": "spender",
          "type": "address"
        },
        {
          "name": "subtractedValue",
          "type": "uint256"
        }
      ],
      "name": "decreaseAllowance",
      "outputs": [
        {
          "name": "",
          "type": "bool"
        }
      ],
      "payable": false,
      "stateMutability": "nonpayable",
      "type": "function"
    },
    {
      "constant": false,
      "inputs": [
        {
          "name": "to",
          "type": "address"
        },
        {
          "name": "value",
          "type": "uint256"
        }
      ],
      "name": "transfer",
      "outputs": [
        {
          "name": "",
          "type": "bool"
        }
      ],
      "payable": false,
      "stateMutability": "nonpayable",
      "type": "function"
    },
    {
      "constant": true,
      "inputs": [
        {
          "name": "account",
          "type": "address"
        }
      ],
      "name": "isMinter",
      "outputs": [
        {
          "name": "",
          "type": "bool"
        }
      ],
      "payable": false,
      "stateMutability": "view",
      "type": "function"
    },
    {
      "constant": true,
      "inputs": [
        {
          "name": "owner",
          "type": "address"
        },
        {
          "name": "spender",
          "type": "address"
        }
      ],
      "name": "allowance",
      "outputs": [
        {
          "name": "",
          "type": "uint256"
        }
      ],
      "payable": false,
      "stateMutability": "view",
      "type": "function"
    },
    {
      "constant": false,
      "inputs": [
        {
          "name": "newOwner",
          "type": "address"
        }
      ],
      "name": "transferOwnership",
      "outputs": [],
      "payable": false,
      "stateMutability": "nonpayable",
      "type": "function"
    },
    {
      "inputs": [],
      "payable": false,
      "stateMutability": "nonpayable",
      "type": "constructor"
    },
    {
      "anonymous": false,
      "inputs": [
        {
          "indexed": true,
          "name": "previousOwner",
          "type": "address"
        }
      ],
      "name": "OwnershipRenounced",
      "type": "event"
    },
    {
      "anonymous": false,
      "inputs": [
        {
          "indexed": true,
          "name": "previousOwner",
          "type": "address"
        },
        {
          "indexed": true,
          "name": "newOwner",
          "type": "address"
        }
      ],
      "name": "OwnershipTransferred",
      "type": "event"
    },
    {
      "anonymous": false,
      "inputs": [],
      "name": "MintingFinished",
      "type": "event"
    },
    {
      "anonymous": false,
      "inputs": [
        {
          "indexed": true,
          "name": "account",
          "type": "address"
        }
      ],
      "name": "MinterAdded",
      "type": "event"
    },
    {
      "anonymous": false,
      "inputs": [
        {
          "indexed": true,
          "name": "account",
          "type": "address"
        }
      ],
      "name": "MinterRemoved",
      "type": "event"
    },
    {
      "anonymous": false,
      "inputs": [
        {
          "indexed": true,
          "name": "from",
          "type": "address"
        },
        {
          "indexed": true,
          "name": "to",
          "type": "address"
        },
        {
          "indexed": false,
          "name": "value",
          "type": "uint256"
        }
      ],
      "name": "Transfer",
      "type": "event"
    },
    {
      "anonymous": false,
      "inputs": [
        {
          "indexed": true,
          "name": "owner",
          "type": "address"
        },
        {
          "indexed": true,
          "name": "spender",
          "type": "address"
        },
        {
          "indexed": false,
          "name": "value",
          "type": "uint256"
        }
      ],
      "name": "Approval",
      "type": "event"
    }
  ],
  "bytecode": "0x60806040526007805460ff191690553480156200001b57600080fd5b50604080518082018252600b81527f4d6167696320546f6b656e0000000000000000000000000000000000000000006020808301918252835180850190945260038085527f4d474300000000000000000000000000000000000000000000000000000000009185019190915282519293926012926200009b92916200013c565b508151620000b19060049060208501906200013c565b506005805460ff191660ff9290921691909117905550620000e4905060063364010000000062000101810262000cf21704565b6007805461010060a860020a0319163361010002179055620001e1565b600160a060020a03811615156200011757600080fd5b600160a060020a0316600090815260209190915260409020805460ff19166001179055565b828054600181600116156101000203166002900490600052602060002090601f016020900481019282601f106200017f57805160ff1916838001178555620001af565b82800160010185558215620001af579182015b82811115620001af57825182559160200191906001019062000192565b50620001bd929150620001c1565b5090565b620001de91905b80821115620001bd5760008155600101620001c8565b90565b610f2b80620001f16000396000f3006080604052600436106101325763ffffffff7c010000000000000000000000000000000000000000000000000000000060003504166305d2035b811461013757806306fdde0314610160578063095ea7b3146101ea57806318160ddd1461020e57806323b872dd14610235578063313ce5671461025f578063395093511461028a57806340c10f19146102ae57806342966c68146102d257806370a08231146102ec578063715018a61461030d57806379cc6790146103225780637d64bcb4146103465780638da5cb5b1461035b5780638f32d59b1461038c57806395d89b41146103a1578063983b2d56146103b657806398650275146103d7578063a457c2d7146103ec578063a9059cbb14610410578063aa271e1a14610434578063dd62ed3e14610455578063f2fde38b1461047c575b600080fd5b34801561014357600080fd5b5061014c61049d565b604080519115158252519081900360200190f35b34801561016c57600080fd5b506101756104a6565b6040805160208082528351818301528351919283929083019185019080838360005b838110156101af578181015183820152602001610197565b50505050905090810190601f1680156101dc5780820380516001836020036101000a031916815260200191505b509250505060405180910390f35b3480156101f657600080fd5b5061014c600160a060020a036004351660243561053c565b34801561021a57600080fd5b506102236105ba565b60408051918252519081900360200190f35b34801561024157600080fd5b5061014c600160a060020a03600435811690602435166044356105c0565b34801561026b57600080fd5b50610274610723565b6040805160ff9092168252519081900360200190f35b34801561029657600080fd5b5061014c600160a060020a036004351660243561072c565b3480156102ba57600080fd5b5061014c600160a060020a03600435166024356107dc565b3480156102de57600080fd5b506102ea600435610815565b005b3480156102f857600080fd5b50610223600160a060020a0360043516610822565b34801561031957600080fd5b506102ea61083d565b34801561032e57600080fd5b506102ea600160a060020a03600435166024356108ac565b34801561035257600080fd5b5061014c6108ba565b34801561036757600080fd5b5061037061091c565b60408051600160a060020a039092168252519081900360200190f35b34801561039857600080fd5b5061014c610930565b3480156103ad57600080fd5b50610175610946565b3480156103c257600080fd5b506102ea600160a060020a03600435166109a7565b3480156103e357600080fd5b506102ea610a03565b3480156103f857600080fd5b5061014c600160a060020a0360043516602435610a16565b34801561041c57600080fd5b5061014c600160a060020a0360043516602435610a61565b34801561044057600080fd5b5061014c600160a060020a0360043516610b2e565b34801561046157600080fd5b50610223600160a060020a0360043581169060243516610b47565b34801561048857600080fd5b506102ea600160a060020a0360043516610b72565b60075460ff1690565b60038054604080516020601f60026000196101006001881615020190951694909404938401819004810282018101909252828152606093909290918301828280156105325780601f1061050757610100808354040283529160200191610532565b820191906000526020600020905b81548152906001019060200180831161051557829003601f168201915b5050505050905090565b6000600160a060020a038316151561055357600080fd5b336000818152600160209081526040808320600160a060020a03881680855290835292819020869055805186815290519293927f8c5be1e5ebec7d5bd14f71427d1e84f3dd0314c0f7b2291e5b200ac8c7c3b925929181900390910190a350600192915050565b60025490565b600160a060020a0383166000908152602081905260408120548211156105e557600080fd5b600160a060020a038416600090815260016020908152604080832033845290915290205482111561061557600080fd5b600160a060020a038316151561062a57600080fd5b600160a060020a038416600090815260208190526040902054610653908363ffffffff610b8e16565b600160a060020a038086166000908152602081905260408082209390935590851681522054610688908363ffffffff610ba516565b600160a060020a038085166000908152602081815260408083209490945591871681526001825282812033825290915220546106ca908363ffffffff610b8e16565b600160a060020a0380861660008181526001602090815260408083203384528252918290209490945580518681529051928716939192600080516020610ee0833981519152929181900390910190a35060019392505050565b60055460ff1690565b6000600160a060020a038316151561074357600080fd5b336000908152600160209081526040808320600160a060020a0387168452909152902054610777908363ffffffff610ba516565b336000818152600160209081526040808320600160a060020a0389168085529083529281902085905580519485525191937f8c5be1e5ebec7d5bd14f71427d1e84f3dd0314c0f7b2291e5b200ac8c7c3b925929081900390910190a350600192915050565b60006107e733610b2e565b15156107f257600080fd5b60075460ff161561080257600080fd5b61080c8383610bbe565b50600192915050565b61081f3382610c56565b50565b600160a060020a031660009081526020819052604090205490565b610845610930565b151561085057600080fd5b600754604051610100909104600160a060020a0316907ff8df31144d9c2f0f6b59d69b8b98abd5459d07f2742c4df920b25aae33c6482090600090a26007805474ffffffffffffffffffffffffffffffffffffffff0019169055565b6108b68282610c60565b5050565b60006108c533610b2e565b15156108d057600080fd5b60075460ff16156108e057600080fd5b6007805460ff191660011790556040517fb828d9b5c78095deeeeff2eca2e5d4fe046ce3feb4c99702624a3fd384ad2dbc90600090a150600190565b6007546101009004600160a060020a031690565b6007546101009004600160a060020a0316331490565b60048054604080516020601f60026000196101006001881615020190951694909404938401819004810282018101909252828152606093909290918301828280156105325780601f1061050757610100808354040283529160200191610532565b6109b033610b2e565b15156109bb57600080fd5b6109cc60068263ffffffff610cf216565b604051600160a060020a038216907f6ae172837ea30b801fbfcdd4108aa1d5bf8ff775444fd70256b44e6bf3dfc3f690600090a250565b610a1460063363ffffffff610d2c16565b565b6000600160a060020a0383161515610a2d57600080fd5b336000908152600160209081526040808320600160a060020a0387168452909152902054610777908363ffffffff610b8e16565b33600090815260208190526040812054821115610a7d57600080fd5b600160a060020a0383161515610a9257600080fd5b33600090815260208190526040902054610ab2908363ffffffff610b8e16565b3360009081526020819052604080822092909255600160a060020a03851681522054610ae4908363ffffffff610ba516565b600160a060020a03841660008181526020818152604091829020939093558051858152905191923392600080516020610ee08339815191529281900390910190a350600192915050565b6000610b4160068363ffffffff610d6316565b92915050565b600160a060020a03918216600090815260016020908152604080832093909416825291909152205490565b610b7a610930565b1515610b8557600080fd5b61081f81610d9a565b60008083831115610b9e57600080fd5b5050900390565b600082820183811015610bb757600080fd5b9392505050565b600160a060020a0382161515610bd357600080fd5b600254610be6908263ffffffff610ba516565b600255600160a060020a038216600090815260208190526040902054610c12908263ffffffff610ba516565b600160a060020a038316600081815260208181526040808320949094558351858152935192939192600080516020610ee08339815191529281900390910190a35050565b6108b68282610e23565b600160a060020a0382166000908152600160209081526040808320338452909152902054811115610c9057600080fd5b600160a060020a0382166000908152600160209081526040808320338452909152902054610cc4908263ffffffff610b8e16565b600160a060020a03831660009081526001602090815260408083203384529091529020556108b68282610c56565b600160a060020a0381161515610d0757600080fd5b600160a060020a0316600090815260209190915260409020805460ff19166001179055565b600160a060020a0381161515610d4157600080fd5b600160a060020a0316600090815260209190915260409020805460ff19169055565b6000600160a060020a0382161515610d7a57600080fd5b50600160a060020a03166000908152602091909152604090205460ff1690565b600160a060020a0381161515610daf57600080fd5b600754604051600160a060020a0380841692610100900416907f8be0079c531659141344cd1fd0a4f28419497f9722a3daafe3b4186f6b6457e090600090a360078054600160a060020a039092166101000274ffffffffffffffffffffffffffffffffffffffff0019909216919091179055565b600160a060020a0382161515610e3857600080fd5b600160a060020a038216600090815260208190526040902054811115610e5d57600080fd5b600254610e70908263ffffffff610b8e16565b600255600160a060020a038216600090815260208190526040902054610e9c908263ffffffff610b8e16565b600160a060020a03831660008181526020818152604080832094909455835185815293519193600080516020610ee0833981519152929081900390910190a350505600ddf252ad1be2c89b69c2b068fc378daa952ba7f163c4a11628f55a4df523b3efa165627a7a72305820a8b58f264b7ec30c062acfd33b8782e45d34c81f45a2db391656d8bce78ace0e0029",
  "source": "pragma solidity ^0.4.4;\n\nimport \"./IMagicToken.sol\";\n\nimport 'openzeppelin-solidity/contracts/token/ERC20/ERC20.sol';\nimport 'openzeppelin-solidity/contracts/token/ERC20/ERC20Detailed.sol';\nimport 'openzeppelin-solidity/contracts/token/ERC20/ERC20Mintable.sol';\nimport 'openzeppelin-solidity/contracts/token/ERC20/ERC20Burnable.sol';\nimport 'openzeppelin-solidity/contracts/ownership/Ownable.sol';\n\n// Basic Connectivity Token\ncontract MagicToken is ERC20, ERC20Detailed, ERC20Mintable, ERC20Burnable, Ownable {\n    constructor()\n    ERC20Detailed(\"Magic Token\", \"MGC\", 18)\n    Ownable()\n    public {}\n}\n",
  "sourcePath": "/Users/josephjung/projects/magic/magic-protocol/contracts/token/MagicToken.sol",
  "compiler": {
    "name": "solc",
    "version": "0.4.24+commit.e67f0147.Emscripten.clang"
  },
  "schemaVersion": "2.0.1",
  "updatedAt": "2018-11-08T17:56:56.177Z"
}